:020000040800F2
:1000000098060020D5000008D9120008C712000881
:1000100000000000000000000000000000000000E0
:10002000000000000000000000000000CD1B0008E0
:100030000000000000000000251B0008451F00080C
:100040000501000805010008050100080501000878
:100050000501000805010008050100080501000868
:100060000000000005010008050100080501000866
:100070000501000805010008000000000501000856
:100080000000000000000000000000000000000070
:100090000501000800000000000000000501000844
:1000A0000000000005010008000000000000000042
:1000B000CD240008C9120008000000000000000064
:1000C0000348854600F0C0F800480047412F00086B
:1000D000980600200C4880F308880C480168090E37
:1000E0000B4A914205D10B480B4901600B480C4962
:1000F00001600C4880470C480047FEE7FEE7FEE73A
:10010000FEE7FEE7FEE7000098060020040000007E
:100110001F000000341002400100000000000140F8
:1001200000000000C11F0008C100000830B50B46E8
:10013000014600202022012409E00D46D5409D42C1
:1001400005D31D469540491B254695404019154647
:10015000521E002DF1DC30BD70B50024254600286C
:1001600001DA01244042002901DA01254942FFF762
:10017000DDFFAC4200D04042002C00D0494270BDAF
:10018000F0B51FB40646002082B005464024019118
:1001900000901BE0019922460F46304600F042F8DD
:1001A000049A059B801A994110D31046194622469D
:1001B00000F028F8361A8F410197224601200021CD
:1001C000009F00F01FF838184D4100902046641E33
:1001D0000028DFDC019B00982946324607B0F0BDBD
:1001E000D2B201E00270401C491EFBD270470022CF
:1001F000F6E710B513460A4604461946FFF7F0FF26
:10020000204610BD10B5202A04DB0146203A91405B
:10021000002010BD914020239C1A0346E34019435F
:10022000904010BD10B5202A04DB0846203AD0408B
:10023000002110BD0B46D340D0402024A21A91408B
:100240000843194610BD0000064C0125064E05E086
:10025000E36807CC2B430C3C98471034B442F7D3E7
:10026000FFF732FF98370008B8370008B0B52521EE
:10027000415C022919D101462431026813680E2419
:10028000A343136013680125AB431360026C436CF6
:100290001C241C402B46A340536000240C704D705E
:1002A000816B002904D0884702E00421C163012446
:1002B0002046B0BDB0B5044600F0DEF80546601C2F
:1002C00002D08C480078041900F0D6F8401BA042F8
:1002D000FAD3B0BDF0B588B00E465C4907908842AD
:1002E00001D0062100E0022100910024069422465C
:1002F000019630680146D14000D1A4E00123049367
:100300009340184000D198E00290039430467468FE
:10031000122C059261D8049EA6404E490E425CD034
:100320000327069A9740079DAE68BE43C168914077
:10033000059A3143A960E106C90F91406E689E435A
:100340000E436E60FF435300079DE968394086689D
:100350009E400E43EE601021214312290FD11C2133
:10036000039C21400F248C40D608B600079A9619AA
:10037000326AA24304698C40144334624468029D8B
:10038000079801683940032722463A409A400A43B9
:100390000260E100019E039C059A4ED55B4916461A
:1003A0000A4609680498014311600C2323400F2179
:1003B00099403246BA43284C264614598C43971923
:1003C00005210907079888420DD0244907988842DB
:1003D000009E019809D1049E07E0032306998B40F3
:1003E000DF430B46B0E7002601989E4026433E605F
:1003F00017490C684368D903059A064601D52C4372
:1004000000E0AC4312490C604C68990301D52C43C1
:1004100000E0AC430E494C608C68D90201D52C43F6
:1004200000E0AC430A498C60CC68990201D52C43AA
:1004300000E0AC430649CC60039C241D0699891C4E
:100440000691521C55E708B0F0BDC04600080050A8
:1004500000040140060006000800014000040050AE
:1004600000690840411E88417047002A01D01822C7
:1004700000E0282281507047054800687047C04658
:100480001C48007802490A68101808607047C04686
:100490009402002010B5D448016840220A4302604B
:1004A0000024204600F008F8002801D0012401E0D3
:1004B00000F022F8204610BD70B504467D20C00033
:1004C0000C4E3178FFF732FE0146CF480068FFF747
:1004D0002DFE00F011FC0125032C08D8002806D1C0
:1004E0000025E84321462A4600F01CF8746028469F
:1004F00070BDC04608000020044801680122114375
:100500000160110742680A4342607047341002409C
:100510001F21014001208840014908607047C04602
:1005200000E100E080B500F0D9FE80BDF0B587B0F5
:10053000034600788006CF4C78D501252907A06BAB
:10054000C0000693029101D5002003E0A06B084390
:10055000A063012003902F02484C2068C0050FD4EF
:10056000206838432060FFF787FF0646206838423E
:1005700006D1FFF781FF801B6428F7D903257AE0B5
:10058000BC4C226803200604069B59680591314043
:10059000019000050490B14207D1059842400498AB
:1005A000024002D02268920365D4226D324025D0E9
:1005B0008A4223D01978890620D5216DEA04236D5B
:1005C00013432365236D93432365069B0A46B24379
:1005D0002265394212D02746FFF74EFF0546834C6D
:1005E000386D800506D4FFF747FF401BA042F7D9BE
:1005F000019D40E0069B586805903C46059D2946B4
:100600003140B14208D10498054003221205236805
:1006100093432B432360069B206D0843206503987A
:10062000002803D0A06B02998843A0631868810753
:1006300005D5E16C0C2291439A680A43E2644107B4
:1006400006D503218902E26C8A43D9681143E1642B
:10065000010706D503210903E26C8A431969114396
:10066000E1640025000606D503208004E16C814387
:1006700058690843E064284607B0F0BD00700040A8
:10068000F8B5002853D00D460446574A116801209A
:100690000140A94208D211680126B14329431160E3
:1006A00011683140A94259D121688A0707D5574AB4
:1006B00016461268F0239A43A36813433360C907B0
:1006C00037D14949086801263040A84207D908684F
:1006D000B0432843086008683040A8423ED12068F3
:1006E000410708D507210902484A134612688A4380
:1006F000E16811431960000709D50720C00243498A
:100700000A46096881432069C0000843106000F070
:1007100081F83E4909680906090F354A515CC8400D
:10072000394908600020FFF7C7FE064616E001269B
:1007300014E06168354A0C3A032904D0022905D136
:100740001268920308E01268920105E0126801291C
:1007500001D1520700E09205064601D43046F8BDAB
:100760002A48024600680326B04308431060FFF79A
:1007700083FE07466068032822D002282DD0012876
:100780000CD1224800680C210140042999D0FFF7C0
:1007900073FEC01B15498842F3D9DFE71B48006888
:1007A0000007800F8DD0FFF767FEC01B0F498842FE
:1007B000F4D9D3E7FFF760FEC01B0C498842CDD8BF
:1007C000124800680C2101400C29F3D179E7FFF7AA
:1007D00053FEC01B05498842C0D80C4800680C2154
:1007E00001400829F3D16CE7002002408813000083
:1007F0007637000804480068044909684905490F2C
:10080000034A515CC8407047100000200C100240A1
:100810008637000810B5174BD9680807820F1648AD
:100820007A441279520097440108070D0120000410
:1008300059680904490F884010BD1868C00610D5D2
:10084000104810BD8A02120F0C4CA25C0902890FDD
:10085000491CDC68E40307D41868C00603D50948BE
:1008600002E0074810BD064842431046FFF75EFC11
:1008700010BDC0460010024000127A008E370008FA
:100880000024F40000093D00F0B589B000281ED016
:10089000F54EF1680C220A400692012105910904E7
:1008A000F76804910F4007900078C0074AD0069877
:1008B000082804D006980C280BD1002F09D03068E6
:1008C00080033FD50798406800283BD174E00120A1
:1008D00008E207984468049A944208D030680521D9
:1008E00009048C4206D105998904084330603068B8
:1008F000104309E090433060306810400890089839
:1009000005988104306888433060FFF7B5FD0546DF
:10091000002C0BD0059844043068204212D1FFF718
:10092000ABFD411B03206429F6D9DBE105984404A3
:100930003068204206D0FFF79FFD411B0320642949
:10094000F6D9CFE10798007880071ED40798007881
:10095000C00633D407980078000700D4B5E00798A4
:100960004169306D002900D19FE0012108433065C5
:10097000FFF782FD0546306D800700D5A5E0FFF743
:100980007BFD401B0228F6D932E0079BD868810620
:1009900004D531682022114331609043069904291F
:1009A00004D006990C2942D1002F40D1316800288B
:1009B00020D1042211401DD0059893E1069800280B
:1009C0004BD00798826901214C0230680902002A45
:1009D00000D1A9E008433060FFF74EFD05463068BE
:1009E000204200D0FEE0FFF747FD401B0228F6D969
:1009F000032077E11F21090272688A4319690902FD
:100A00001143716031680922914301433160FFF75E
:100A100001FFF1680906090FB34A515CC840B349A8
:100A200008600020FFF748FD00288FD05AE13168A8
:100A3000002800D1E7E00922914301433160FFF72C
:100A40001BFD05463068400700D502E1FFF714FDA5
:100A5000411B03200229F5D944E130688005079B3A
:100A600002D598690028A7D0072040037168814308
:100A7000186A01437160FF21090672688A43D969C7
:100A8000090689187160400B04998140F0680006DE
:100A9000000F954A105CC140944801600020FFF7A8
:100AA0000BFD002800D01DE154E70121884330658B
:100AB000FFF7E2FC0546306D800706D5FFF7DCFC4A
:100AC000411B03200229F6D90CE107990878400759
:100AD00021D44C6A002C00D103E106980C2833D1B4
:100AE000012C00D168E7F068049A0240079B996ADC
:100AF0008A4200D060E70F2189040140DA6A9142FE
:100B000000D059E7032189050840196B88420598F0
:100B100000D1E6E0E6E001221107B06BC0000191D0
:100B200033D50020029034E088433060FFF7A4FC06
:100B300005463068204200D10CE7FFF79DFC411BC1
:100B400003200229F5D9CDE00120010632688A434D
:100B500032604706FFF790FC0546022C0AD1306848
:100B6000384200D1A0E0FFF787FC411B0320022997
:100B7000F5D9B7E03068384200D1B2E0FFF77CFC2D
:100B8000411B03200229F5D9ACE0B06B0843B063E8
:100B9000029203921402564F3868C0050FD4386889
:100BA00020433860FFF768FC05463868204206D1CC
:100BB000FFF762FC411B03206429F6D992E00798F5
:100BC0008068039B5F0200282ED0A04207D0316DC1
:100BD00005221202904249D1980201433165306DDD
:100BE000204348E00720400371688143079A106A58
:100BF00008437060FF20000671688143D0690006D9
:100C000040187060A6E6012081433160FFF734FC94
:100C100005463068400700D498E6FFF72DFC411BDD
:100C200003200229F5D95DE0306DA04330659802BC
:100C3000316D81433165FFF71FFC05462D4C306D4A
:100C4000384227D0FFF718FC411B0320A142F6D9F8
:100C500048E01F2000027168814307980069000284
:100C60000843706072E6C04600100240A14331653F
:100C70009902306D88431F4C3065FFF7FDFB054638
:100C8000306D384206D1FFF7F7FB411B0320A1422C
:100C9000F6D927E002980028079900D119E7B06B30
:100CA000019A9043B06314E7FD200004F16881438A
:100CB000079B28330DCB084310431843F0601848B6
:100CC000401C316801433160FFF7D6FB04463068B1
:100CD000384206D1FFF7D0FB011B03200229F6D9C9
:100CE00000E0002009B0F0BD7637000810000020B9
:100CF0000070004088130000401E010E01D001204A
:100D000070470749074A5060074803680B400321B2
:100D10008907591801600020906007211160704711
:100D2000FFFFFF0010E000E020ED00E0B0B538224A
:100D3000825C012A01D10220B0BD02463832022372
:100D40005370006843687024A34384680D68496841
:100D50001D43456080239C430C4384600020107039
:100D600001215170B0BDB0B5002814D0044605462D
:100D700038356878002804D100202870204600F01B
:100D80000DF80220687001CC214601F041F90120E4
:100D900068700020B0BD0120B0BD000001218A07AD
:100DA0000068904200D07047024802680A4302601F
:100DB0007047C0463810024039210222425401686F
:100DC0008A68072313403930062B03D00A680123B1
:100DD00013430B600121017000207047392102226A
:100DE0004254016839300A6A054B1A4203D10A6835
:100DF00001239A430A600121017000207047C04618
:100E000011110000F8B504463820205C012801D1FA
:100E10000220F8BD254638350220687001262E7064
:100E200020688268304B1A408260024608320F68A0
:100E3000002F1ED0102F1CD0202F1AD0302F18D0EA
:100E4000402F1DD0502F3ED0602F23D070038742FB
:100E50002AD0702F43D148688C68C96877331768E7
:100E60001F40044308022043384310601168772074
:100E700027E01068702188430743072038432DE09E
:100E8000CA68496801F0EEF8226891684720084373
:100E9000302121E0CA68496801F0F5F822689168BC
:100EA00067200843102117E048688C68C9687733C9
:100EB00017681F4004430802204338431060B10301
:100EC000106808430AE0CA68496801F0CBF8226854
:100ED0009168572008432021884308321060002081
:100EE00028706E70F8BDC0468800FFFF70477047DD
:100EF000F0B587B00568EA692E68202733463B4085
:100F00002F2414400695A968202C07D1002B05D06A
:100F1000016E002900D1A3E08847A1E005961407DF
:100F200003940FD001250C462C4066426641019582
:100F30002D020490029520350598284204981ED170
:100F4000002E1CD0D30209D501239C05214005D0D9
:100F50001905069A1162FFF7C9FF81E00599114052
:100F60000A0672D449067BD5069B19684022914334
:100F7000196000214166476700F0A4F970E0D507C9
:100F80000AD005980299014006D00698019901629D
:100F90000498C56F0D43C567022115460D406F4289
:100FA0006F413046374307D1069801620498C56FF8
:100FB00004272F43C7673046042517462F407E423B
:100FC0007E41064305D1069805620498C56F0D431E
:100FD000C5671C43631E9C4103980028049D059926
:100FE00007D5002C05D0082306980362EC6F1C433C
:100FF000EC67EB6F002B33D01140890606D5296EC4
:10100000002903D02846884728680690E96F0822FF
:101010000A40069880684024204080181BD028464B
:1010200001F0DBF828688168490610D58168A14382
:101030008160E86E00280AD00A498163FFF716F93B
:1010400000280DD0E86E816B66E7416E61E72846A7
:10105000FFF74DFF04E02846FFF749FF0020E8674F
:1010600007B0F0BDC5210008B0B500282ED0044659
:10107000406F002805D1702000212154204600F047
:1010800029F824206067206801680125A9430160D0
:10109000204601F009F9012819D0606A002802D021
:1010A000204601F003F80920C00221684A68824303
:1010B0004A6088682A2290438860086801220243B7
:1010C0000A60204601F04EF8054600E0012528465A
:1010D000B0BD0000B0B586B0044601A81421FFF7EA
:1010E00086F820687349884214D07349884236D103
:1010F000012081041B4AD3680B43D360116801436C
:1011000011601168014000910320019000981D2496
:10111000062010E001204104124AD3680B43D3603B
:101120001168014311601168014000910E4801905F
:1011300000981C24042005900320049000250395AA
:10114000022002900520000701A9FFF7C3F82046FE
:1011500029462A46FFF7E6F92046FFF7D9F906B0F7
:10116000B0BDC0462C10024004040000F8B5846FE6
:101170000223202C28D10126002926D0002A24D0A1
:10118000856801273C030094A54204D10469002C22
:1011900001D1CC073FD104465834267E012E1E468D
:1011A00013D0277641656280228000260666002DD6
:1011B0000DD039078D42009B0FD09D4212D101699D
:1011C000002908D1164910E01E463046F8BD0169D5
:1011D0000029009B08D1FF2107E00169002903D005
:1011E0003F2102E0A68001E07F21A180C667222185
:1011F000816701688A683A438A609D4202D1026928
:10120000002A0AD0084A02662676092040010A68A8
:1012100002430A60D9E73E46D7E7024AF3E7C046F1
:10122000FF010000F92100084F220008B0B5006856
:101230002049884207D02049884237D11F4D29468E
:101240000C31244803E01D4D29460C311C48012473
:101250002246FFF78BFF287BFF2805D069780129FC
:1012600004D028780C4607E00121697029786A18B3
:101270003023D054481C2870C0B2072814D3002053
:1012800028803020295CA9702A4630325078E870D6
:101290005388AB809388EB8092792A72FF2906D11C
:1012A000687201F0C1FC6C78002C00D0B0BD002049
:1012B0002870B0BD004400400048004018000020E5
:1012C000140200207047FEE780B50248FFF710FEC9
:1012D00080BDC0469401002070470000002805D45E
:1012E0000322034693430B4A9A1806E00F2202405A
:1012F000083A03239A43084BD2188007C00E89018D
:10130000C9B28140FF2383401068984308431060AE
:101310007047C04600E400E01CED00E0FEB50F4E53
:1013200030780A38122800D98FE24000784480884B
:101330004000874415005F00A900DC000F0179011F
:101340008F01CA01130229023F028A028A02700237
:101350007C028A028A028A028802C04600000020BB
:10136000F94F02213846FFF77BF8002800D06CE2E5
:10137000F64C0025A572202101223846FFF775F8AA
:10138000102138462A46FFF770F81E20F04988479A
:101390006320C7433846EF4988473C20EC498847DB
:1013A0003846EC4988475A20E94988473846E64F8D
:1013B000E8498847A08AC01EA082E0795A30E449F3
:1013C000884730780A2806D06079072803D0A079AA
:1013D000002800D139E2E5727068404202F00AF854
:1013E000A08A401EA08202213846FFF739F8012862
:1013F000E7D12AE20520000701210D0202902946CB
:10140000FFF72EF8002800D01FE2D04F0024BC7256
:10141000CD4820210122FFF728F81021CA48224692
:10142000FFF723F81E20CA49884764200190C94964
:1014300088473C20C64988470198C64988475A20B2
:10144000C34988470198C3498847B88AC01CB882F5
:10145000F8795A30BE49884730780B2806D0787919
:10146000072803D0B879002800D1EEE1FC7270683B
:1014700001F0C0FFB88A401CB88202982946FEF7E6
:10148000EFFF0128E8D1E0E1B04800248472AE4DBE
:10149000102101222846FEF7E8FF20212846224697
:1014A000FEF7E3FF1E20AA4988476425A94F284676
:1014B000B8473C20A64988472846B8475A20A4493F
:1014C00088472846A14DB847688AC11C6982022016
:1014D000305E82B28BB2934203D009B2814201DD09
:1014E0000C1A6C82A8795A3001F064FFCCE097485E
:1014F00000248472944D102101222846FEF7B5FF86
:10150000202128462246FEF7B0FF1E20904988473A
:101510006320C5438F4F2846B8473C208C498847F5
:101520002846B8475A208A4988472846874DB847F1
:10153000688AC01E688271880BB202B2DA4203D098
:101540005B429A4201DA0C186C82A8795A3001F099
:1015500031FFD5E07D4F00200290B8727A4C022511
:1015600020462946FEF77CFF002800D082E01021AB
:101570002046029AFEF779FF20212046029AFEF7C4
:1015800074FF1E20724988476320C143019164247F
:10159000714A204690473C206D4988472046019972
:1015A0006D4A90475A206A498847204601996A4AFD
:1015B0009047788AC11C7982B88AC01EB882705F51
:1015C00082B28BB2934204D009B2814203DD081A81
:1015D000029002987882B8795A3001F0EBFE3078A8
:1015E0000E2806D07879072803D0B879002800D1D2
:1015F0002BE10024FC727068414201F06FFF788A91
:10160000401C7882B98A491EB982715F00B2884253
:1016100002DA4942884200DC7C8202214A48FEF715
:101620001FFF0128DBD110E1484C00200290A0727E
:10163000454F022538462946FEF712FF10210028A3
:1016400000D106E101223846FEF70FFF20210022DB
:10165000384653E03D4C00200090A072052005075D
:101660000120070228463946FEF7FAFE002800D17D
:101670004AE1354C102101222046FEF7F6FE2021DA
:1016800000222046FEF7F1FE304C607902280AD095
:1016900031780E2907D0102905D0A179072802D06A
:1016A000002900D1D1E00025E572706801F0A2FEAA
:1016B000608A401C60820221715E00B2884202DAB8
:1016C00049428842E1DC6582DFE7EE4F002001906D
:1016D000B872052004070120050220462946FEF7BE
:1016E000BFFEE94B002800D16CE110210122184611
:1016F0001C46FEF7BAFE202100222046FEF7B5FE6A
:10170000E04C3078112818D8012181401520400381
:10171000014212D00025E5727068404201F06AFE75
:10172000608A401E60820221715E00B2884202DA45
:1017300049428842E5DC6582E3E7A07961790729BF
:10174000E8D00028E6D180E0000400501800002016
:10175000B5330008F5330008DD340008F0480021F7
:101760004181407A012870D105200407802101259C
:10177000C64E20462A46B047102120462A46B0478A
:1017800008210022204644E0E54800214181407ABA
:1017900001285AD10520040780210125BB4E20468F
:1017A0002A46B047102100222046B0470821204693
:1017B0002A462EE0DA4800244481D64F10210291B7
:1017C000012538462A46B14B9847202138462A46FB
:1017D000AE4B984705200707802138462246AB4B81
:1017E0009847384602992246A84B98470821384620
:1017F0002246A64B9847A54B34702903384622460B
:101800001E469847C34829462246B04738462946CF
:101810002246B04719E0EB49012088720020307061
:10182000487AC979491EC9B200F058FE0DE0E54C6E
:101830000220A072E07960726420FEF73BFD607ABE
:1018400000F0C6F901E000F025F9DE480121C1727F
:10185000FEBD3846029AFEF708FE20213846029A5D
:10186000FEF703FE1E20AC4988476320C743384675
:101870003946874A90473C20A74988473846394629
:10188000834A90475A20A449884738463946804AB7
:101890009047608AC01E6082A18AC91EA182718899
:1018A0000BB202B2DA4204D05B429A4203DA081861
:1018B000029002986082A0795A3001F07BFD307866
:1018C0000F2805D06079072802D0A0790028BCD065
:1018D0000027E77270684042014601F0FFFD608A10
:1018E000401E6082A18A491EA182715F00B28842B7
:1018F00002DA4942884200DC678202218548FEF70D
:10190000AFFD0128DBD1A0E701970295814F10219F
:101910003846009D2A46FEF7A8FD202138462A4673
:10192000FEF7A3FD1E207C4988476427584D3846A2
:101930003946A8473C207849884738463946A84761
:101940005A207549884738463946A847608AC01CDE
:101950006082A18AC91CA1820227F15F8AB283B288
:10196000934204D000B2884203DD401A00900098F0
:101970006082A0795A3001F01DFD3078102806D021
:101980006079072803D0A079002800D15DE7002501
:10199000E5727068014601F0A1FD608A401C60821A
:1019A000A18A491CA182F15F00B2884202DA494251
:1019B000884200DC658202980199FEF751FD0128FA
:1019C000DBD142E7029410211846019C2246FEF723
:1019D0004CFD20214F482246FEF747FD1E204E4970
:1019E00088476320C04300906424294A21469047D9
:1019F0003C204949884700982146254A90475A206B
:101A00004549884700982146214A9047788AC01E58
:101A10007882B98AC91CB98271880BB202B2DA42E3
:101A200004D05B429A4203DA081801900198788248
:101A3000B8795A3001F0BEFC3078112806D0787998
:101A4000072803D0B879002800D1FEE60024FC72F4
:101A50007168484201F042FD788A401E7882B98A56
:101A6000491CB9820221715E00B2884202DA494201
:101A7000884200DC7C8202982946FEF7F1FC0128AE
:101A8000DAD1E2E618000020000400506B040008E0
:101A9000DD340008F8B51F4D102101222846FEF75D
:101AA000E4FC2021002428462246FEF7DEFC1E200E
:101AB000194EB0476425194F2846B8473C20B04717
:101AC0002846B8475A20B0472846B8473D4D688A4F
:101AD000C11C698202263C4FB85F82B28BB293422E
:101AE00003D009B2814211DD0C1A6C820EE07868D5
:101AF00001F080FC688A401C6882B95F00B28842AD
:101B000002DA4942884201DC0020688238781428D1
:101B1000EDD1F8BD00040050B5330008F5330008DE
:101B20001800002070470000FEB502920D460646E0
:101B300000242746B74209DA1E37384601F03AFC3E
:101B40002846029901F0CAFC641CF3E70E20F84E07
:101B5000305E002823DD019064212846FEF7FCFA60
:101B60006043718A0B1873820221F54A515E8DB26F
:101B70009AB20027AA420AD01BB2CB4207D04A42EF
:101B8000934201DACF1802E08B4201DD5F1A7782BF
:101B900001B2C913401848400199081AF081102079
:101BA000355E012D0DDB64210298FEF7D5FA604306
:101BB000B18A0918B18201B2C91340184840281AE5
:101BC0003082FEBD18000020000000207047000099
:101BD000F0B587B0D64C2146012801D03E3100E057
:101BE0003A31098809B212220192A25E0591069249
:101BF000511A0AB2D21389185140012802D0204646
:101C00003C3001E0204638300DB2008801B2069821
:101C10000491401A01B2C9134018484006B2C54F9A
:101C2000032E2EDC2021002238460392FEF71DFCF5
:101C3000102101223846FEF718FC282001F0BAFBDB
:101C4000BF4F012E1DDB06980499884206DD786897
:101C5000404201F0CFFB608A401E05E00FDA786851
:101C600001F0C8FB608A401C60820221795E00B2EC
:101C7000884202DA4942884201DC03986082761E7B
:101C8000DFE77D2000010290FEF714FB032D2FDC1F
:101C900020210022A74F38460392FEF7E6FB1021D1
:101CA00001223846FEF7E1FB282001F083FBA44F18
:101CB000012D1DDB05980699814206DD78684042BA
:101CC00001F098FB608A401E05E00FDA786801F0A9
:101CD00091FB608A401C60820221795E00B28842DA
:101CE00002DA4942884201DC039860826D1EDFE718
:101CF000A07A012E00DA80E002287ED11021012294
:101D00008C4F3846FEF7B1FB2021002538462A4685
:101D1000FEF7ABFB0698049988421CDD1E2086491D
:101D200088476320C543854F2846B8473C208249F1
:101D300088472846B8475A207F4988472846B847E9
:101D4000608AC01E60827E4949880BB202B2DA42C4
:101D500025D1002027E028DA1E207749884764270C
:101D60003846764988473C20734988473846734946
:101D700088475A2070498847384670498847608AA2
:101D8000C11C618202206E4A105E82B28BB2934205
:101D900003D009B2814207DD0D1A658204E05B427F
:101DA0009A4201DA08186082F61E654D012E20DB8A
:101DB000A07A00281DD006980499884206DD68683C
:101DC000404201F017FB608A401E05E00FDA6868A8
:101DD00001F010FB608A401C60820221695E00B243
:101DE000884202DA4942884201DC00206082761E85
:101DF000DCE70298FEF75EFAA07A022800D088E0BD
:101E00000198275E0598381A01B2C9134018484056
:101E100005B2012D7DDB10210122464E3046FEF732
:101E200024FB2021002230461646FEF71EFB0598B3
:101E300087421EDD1E20404988476320C643304646
:101E40003E4988473C203C49884730463B498847C3
:101E50005A2039498847304638498847608AC01E29
:101E60006082374949880BB202B2DA4225D100209C
:101E700027E028DA1E2030498847642006902F4941
:101E800088473C202C49884706982C4988475A2087
:101E900029498847069829498847608AC11C618278
:101EA0000220274A105E82B28BB2934203D009B25D
:101EB000814207DD0E1A668204E05B429A4201DA33
:101EC00008186082ED1E1E4E012D1FDBA07A00282F
:101ED0001CD00598874206DD7068404201F08AFAFE
:101EE000608A401E05E00FDA706801F083FA608AAC
:101EF000401C60820221715E00B2884202DA4942CF
:101F0000884201DC002060826D1EDDE70298FEF74A
:101F1000D1F910210125074C20462A46FEF7A5FAE3
:101F2000202120462A46FEF7A0FA07B0F0BDC046A1
:101F30001800002000040050B5330008F5330008F5
:101F40000000002080B5FEF79BFA80BDF0B599B087
:101F50000CAD281D2021FEF74AF901A80090001DB4
:101F60001421FEF744F90327F80214490A68824352
:101F70000126F00210180860B0051890B004179000
:101F80000024169402201590102110910F960C90A9
:101F90002846FEF779FC0B940A94099408970F20C1
:101FA000079007A83146FEF76BFB049403940620C4
:101FB00001900098FEF7BAFA19B0F0BD0070004029
:101FC000012002020E490B6813430B60CA680D4BD7
:101FD0001340CB600A680C4B13400B608A68824345
:101FE0008A6082040B6893430B60FD221204CB6865
:101FF0009343CB6000220A61C00604490860704721
:10200000001002400C40FF88F6FFF6FE08ED00E0ED
:1020100010B50468124B984203D0012292079042F7
:1020200004D1702294434A68224300E02246984239
:1020300003D001239B07984205D103231B029A4337
:10204000CB68134300E01346802293430A691A4386
:1020500002608A68C262096881620121416110BD23
:1020600000080140B0B5036A046A0125AC4304626C
:102070008469F025AC431201224382610A22934312
:102080000B430362B0BD10B5036A1024A34303627F
:102090000F231B0384699C4312032243036A82615A
:1020A000A022934309011943016210BDB0B5416AF2
:1020B000CA0707D00122520403685C689443826A0D
:1020C00022435A608A0707D50122120403685C681C
:1020D0009443C26A22435A604A0707D501229204F8
:1020E00003685C689443026B22435A600A0707D571
:1020F0000122D20303685C689443426B22435A6016
:10210000CA0607D50122120303689C689443826BB8
:1021100022439A608A0607D50122520303689C680D
:102120009443C26B22439A604A0610D501221305DC
:10213000026854689C43056C2C4354609D4206D150
:1021400003235B0554689C43436C23435360090697
:1021500007D50121C904026853688B43806C18437A
:102160005060B0BD7CB505460024C467FEF784F915
:1021700006462868016809070BD511480090012020
:10218000410500222846334600F074F900280ED19C
:102190002868006840070CD5094800900120810597
:1021A00000222846334600F065F9002801D00324B8
:1021B00004E070202C5420206867A86720467CBD6E
:1021C000FFFFFF0180B5806A0146523100220A817B
:1021D00052214252FEF78BFE80BD0921490102685F
:1021E00013688B4313609168012399439160002128
:1021F000016620218167704710B55C21425A016851
:10220000836F222B0ED103465A334C6A2240446D11
:102210002280A21C42651A88521E1A801A88002A3F
:1022200005D010BD8869082202438A6110BD0922C9
:1022300052010B6893430B608A6801239A438A60BA
:102240000021016620218167FEF7F0FF10BD80B5F7
:102250005C21425A0168836F222B0FD103465A3307
:10226000496A1140426D1170416D491C41651988E0
:10227000491E19801988002905D080BD8869082267
:1022800002438A6180BD09214901026813688B43BA
:102290001360916801239943916000210166202118
:1022A0008167FEF7C3FF80BDF8B50446C169406988
:1022B0002369A568226816685F4F37401D430543B0
:1022C0000D433D4315600326300353688343E068A4
:1022D00018435060A569594B9A4202D0206A28439E
:1022E00000E028460B252D029768AF43074397600F
:1022F0005348824203D09A420AD10A2000E00220C9
:10230000504DED6CC540A807000F4FA52F5800E0B9
:1023100010270125E8039A4212D081421ED1082FCE
:1023200000D984E04E4EC0467F443F797F00BF44D1
:10233000047E3D7E2E7E7E7E4500FEF75BFA28E021
:102340007908042900D972E07944097949008F4459
:102350000213196E4100FEF74DFA15E0082F66D8FA
:102360007F443F797F00BF44046219622E6262623B
:102370003000FEF73FFA28E032480068C00628D552
:10238000354827E0FEF746FA002823D14EE0FEF755
:1023900041FA400061684A0810183EE02948026886
:1023A00061684808D2062ED42C4A2DE025480268E0
:1023B00061684808D2062ED42B4A2DE0616848088F
:1023C0003018103029E0FEF725FA61684A08101825
:1023D0001BE0224862685643B04228D3110388426A
:1023E00025D8010E530800020026C018714133465B
:1023F000FDF7C6FE1D4941181D4A914217D82168B4
:10240000C860354613E0144A8018FDF78FFE80B28D
:10241000102809D20BE0134A8018FDF787FE06400A
:1024200005D00007400F30432168C8600025002018
:10243000206660662846F8BDF369FFEF004800405B
:1024400000440040001002400000000004000000B2
:10245000020000000800000000093D000024F40014
:10246000F0FF000000127A000048E80100FDFFFFC5
:10247000FFFC0F00F8B5009316460F460446069D74
:102480002068C0693840C01B41424141B1421BD164
:10249000681CF5D0FDF7F0FF002D03D00099401A1D
:1024A000A842EDD90D20400121680A6882430A60E4
:1024B00088680122904388607020002121542020E8
:1024C0006067A0670320F8BD0020F8BD80B5024812
:1024D000FEF70EFD80BDC04614020020F0B589B0A5
:1024E000012801D0F94800E0F9488900445E122231
:1024F000F84E0092B55E2A1B13B2DB13D2185A4075
:10250000401802210391415EF281B08A0891401A7D
:1025100001B2C91343184B40338210B219B2EE4ACC
:102520005288D30BD3181BB25B10984206940795C0
:1025300001DA00222EE0A54202DA5019001B03E066
:1025400007DD501B069C001904B2E413001960401B
:10255000F081541925B2ED1364196C4024B2069D24
:10256000AC4209DB069C141925B2ED1364196C40CA
:1025700024B2079DAC4201DA002400E00124059456
:1025800004B2A34207DA801A02B2D2138018504074
:10259000F081012205920D2902DB02B20C2A69DCCE
:1025A00002B20C2A36DCCD4D2021002428462246DA
:1025B000FDF75BFF102101222846079DFDF755FF1F
:1025C000282000F0F7FEF08901B2012921DB0698EE
:1025D000854208DDC04807464068404200F00AFFD7
:1025E000708A401E07E010DABB480746406800F0DA
:1025F00001FF708A401C70820399795E00B28842A4
:1026000002DA4942884200DC7482F089401EF0817F
:10261000DAE7318A0AB20C2A2CDCB04D10210022F4
:102620002846FDF722FF2021012428462246FDF7F7
:102630001CFF282000F0BEFE318AA94D08B20128F7
:1026400017DB1420305E0899884205DD2F460937D4
:10265000A1484068404203E007DA9F4840682746A7
:1026600000F0C8FEB08AC019B082308A411E3182A3
:10267000E4E7F08909B2012200250029144600DCB4
:102680002C4603B2002B00DC2A46B57A002D00D17F
:1026900042E2224300D13FE2012B0EDB01290CDB99
:1026A000102100258D4C20462A46FDF7DEFE202114
:1026B00020462A46FDF7D9FEF0890004079C0AD17E
:1026C00020210122854D2846FDF7CFFE1021002252
:1026D0002846FDF7CAFE308A00280AD110210122BF
:1026E0007E4D2846FDF7C1FE202100222846FDF739
:1026F000BCFE14200490305E06998C4219DB089AC7
:10270000904216DB0E20305E764A134664330599FC
:1027100000295FD0984200DDA3E01021715E99424C
:1027200000DD9EE0904200DD12E2914200DCF9E122
:102730000EE28C4232DC089A90422FDB0E20305E93
:10274000684B1C4664340599002900D182E0A04200
:1027500046DC1021725EA24242DC984200DDB1E00C
:102760009A4200DDAEE0FF232C331946C83188427F
:1027700000DDF5E18A4200DDF2E11946643188426C
:1027800000DD0FE28A4200DD0CE26321C94398427A
:1027900000DD37E29A4200DC92E033E28C4223DB38
:1027A000089A904220DC0E20305E4E4A1346643375
:1027B000059900295AD0984200DD9CE01021715EF5
:1027C000994200DD97E0904200DD0FE2914200DC8B
:1027D000F8E10BE2984203DC1021715E994251DD71
:1027E0006320C143F02088E08C4200DD88E0089936
:1027F000884200DD84E00E20305E3A4B1C46643493
:102800000599002970D0A04237DC1021725EA242E7
:1028100033DC984200DDC9E19A4200DDC6E1FF23C6
:102820002C331946C831884200DDE3E18A4200DDDD
:10283000E0E119466431884200DDE5E18A4200DDCD
:10284000E2E16321C943984200DDE5E19A4200DC00
:10285000A6E1E1E1A04204DC1021715EA14200DCAE
:102860005CE16320C243F020642147E0984204DC2D
:102870001021715E994200DC7AE16320C143F020AF
:1028800064223BE090421DDC91421BDCFF222C3293
:102890001346C833984200DD62E1994200DD5FE1F2
:1028A00013466433984200DD7CE1994200DD79E112
:1028B000904200DDA4E1914200DDA1E16320C1432B
:1028C0005A201AE06320C143D22016E014010020F0
:1028D0009400002018000020000000200004005098
:1028E000F6FF000057020000A04204DC1021715ED8
:1028F000A14200DC62E1F02064210A46FFF714F9EE
:10290000308AF1890125EA0202920522120701921A
:102910000024274602B2012A2A4600DB224609B2D9
:1029200001292B4600DB2346134200D0E8E0B27AAF
:10293000002A00D1E4E0002905DC20210122B8486A
:10294000FDF793FD308A00B2002804DC102101223B
:10295000B348FDF78AFD0498305E0699079A8A42CB
:1029600023DB089A904220DBAC4840684142059A3C
:10297000002A26D000F0B2FD0E20305E012800DAD9
:1029800093E0708A401C708201980299FDF768FDFF
:10299000012F01D000287CD101980299FDF760FD3C
:1029A000012826D19F48083071E0079A8A4222DC2C
:1029B000089A90421FDB994840684142059A002AD4
:1029C000D8D0084600F08AFD0E20305E01286CDB6E
:1029D000708A401E708201980299FDF741FD012F17
:1029E00001D0012855D101980299FDF739FD002841
:1029F0004CD001274DE0079A8A4222DB089A904288
:102A00001FDC864841680598002825D0084600F05C
:102A100065FD0E20305E01286BDB708A401C7082E1
:102A200001980299FDF71CFD012F01D0002854D117
:102A300001980299FDF714FD012825D17948083045
:102A400049E0079A8A4237DC0899884234DC7348A7
:102A5000416805980028D9D0484200F03FFD0E207B
:102A6000305E012845DB708A401E70820198029911
:102A7000FDF7F6FC012F01D001282ED10198029913
:102A8000FDF7EEFC002825D0012726E0654870827E
:102A9000002703986149095E0098305E884202DA97
:102AA0004942884201DC002070821020305E0128FB
:102AB00002DBB08A401EB0820E20315E012901DBAC
:102AC000491EF1811020305E012800DA22E7401E05
:102AD00030821FE75348708200270398F749095E48
:102AE0000098305E884202DA4942884201DC0020C8
:102AF00070821020305E0128DEDBB08A401CDAE7ED
:102B000010210125EC4C20462A46FDF7AEFC202181
:102B100020462A46FDF7A9FC09B0F0BD984217DC13
:102B2000994215DCFF222C321346C833984213DC3D
:102B3000994211DC13466433984215DC994213DC48
:102B4000904237DC914235DC6320C2435A208BE649
:102B50006320C243D22087E66320C243B42083E6C9
:102B60006320C143B420C8E66320C24396207BE6BD
:102B700090421BDC914219DCFF222C321346C833F1
:102B8000984237DC994235DC1346643398423BDC8B
:102B9000994239DC90423DDC91423BDC6320C143E9
:102BA0005A206DE66320C1439620A6E66320C14308
:102BB000D22065E66320C243782055E6984215DCB2
:102BC000994213DCFF222C321346C83398420FDCA3
:102BD00099420DDC1346643398420FDC99420DDCB8
:102BE000904215DC914213DC5A2085E6D22083E620
:102BF000B42081E66320C143B42041E696207BE601
:102C00006320C143782078E66320C143962037E6ED
:102C1000782071E66320C143782031E6000000206F
:102C200000040050F6FF0000F8B5A34C0821012570
:102C300020462A46FDF719FCA9494879CA78561E4C
:102C4000012E06D8082804D100224A819B480A2177
:102C500010E0012E06D8022804D100224A819748AC
:102C60000C2107E0012E0BD8102809D100224A813F
:102C700092480B21017008212046FDF7F6FBF8BDB4
:102C8000012E07D8042805D18C480D22027000229D
:102C90008A72F0E7012E06D80A2804D100224A8160
:102CA00086480E21E6E7012E06D80C2804D1002222
:102CB0004A8182480F21DDE7012E06D8122804D16F
:102CC00000224A817D481021D4E7012E06D814281D
:102CD00004D100224A8179481121CBE70B79012ADE
:102CE00004D1012B02D17548122105E0012A07D138
:102CF000802805D171481321017008210022BBE70B
:102D0000012EBCD820261E43202E23D1072809D906
:102D10000D2832D01B2830D01D2800D173E029287F
:102D200014D02DE0860001A7BE59B7464D2D0008EE
:102D3000812D0008812D0008B32D0008812D000889
:102D4000D52D0008812D0008F52D00088E79CF794A
:102D5000374367D0C21ED601D2B252089219D2B2FE
:102D60000D2A0DD87A441279520097442233430930
:102D70000906090909090909064C50481821BBE749
:102D80000246093AD601D2B252089219D2B2052AA5
:102D90005ED89540332215425AD000228A72CA79F1
:102DA000092833D1012A31D11220085E0887012178
:102DB00034E000208872CD796A1E1F2A00D95EE7B0
:102DC0004B7A012B4DD0022B54D1488A6A1E9500B4
:102DD000CC4E4AE000208872CD796A1E1F2A00D9A5
:102DE0004DE74B7A012B4CD0022B50D16A1E91003B
:102DF000C44D49E0C87A012800D040E700228A7219
:102E00002E48172136E72D4814223FE7112816D106
:102E1000002A14D11220085E888702216C2200F05B
:102E20004FFC6AE7022A05D00A7A4A2A02D0012A10
:102E300000D08FE700224A81204814211AE70B288E
:102E40002ED1012A2CD11220085E4887012131E0C1
:102E5000902B03D0087A4B2800D010E717481C218C
:102E60004AE7488A6A1E9500A54E705376198D8AE6
:102E7000758001E08D8A488A00B229B200F046FCD4
:102E80003BE76A1E91009E4D6852691848800025F4
:102E90002846294600F03AFC082120462A46ECE65E
:102EA000132800D029E7002A00D026E71220085E68
:102EB000C88702217222B2E70004005000000020FF
:102EC0008D4838300421074A002907D0531E1B883B
:102ED0005BBA0380801C921C491EF5E77047C04610
:102EE0001800002001010808B0B53F20C043854903
:102EF000834A0C4B002814D0C4182546403D2D8829
:102F00006DBA1580C55A6DBA55804025655B6DBA9E
:102F10000D808025645B64BA4C80121D091D801CE5
:102F2000E8E7B0BD8000080804484169C907FCD142
:102F3000016801220A4302607047C0460420024033
:102F40008EB0644C10210127634E20463A46B047AC
:102F50002021069120463A46B047FDF79BFAFEF73E
:102F6000F5FF00240B945D480168042211430160C1
:102F7000016811400C910C990168394301600168A6
:102F800039400C910C9901680222049211430160AE
:102F9000006810400C900C98052005075049284601
:102FA00002952246B04739210191FB482246B0479D
:102FB0000A9409943E460897380303970590D83041
:102FC000079007AF28463946464A90470A94099425
:102FD000089601980790F04806463946414DA847A3
:102FE000099408940498079030463946A8470994F4
:102FF000089409200002079002983946A8473A48E9
:10300000046244620C264B21CF01384982C004601F
:1030100044608460C66004610838FEF725F83448CF
:10302000344982C0046044608460C66004614461C5
:103030008461C4610838FEF717F8E64E2F480399FB
:103040008907316406997164B464F0643465746509
:103050000A9409940894354640352846FDF783FEC6
:103060000598079007A92846FDF7CCFE0D940C940F
:103070000CA92846FDF75AFE21482249802C08D089
:10308000002202530A5303195A800B195A80241D37
:10309000F4E73820402803D000213152801CF9E7A2
:1030A000FFF722FFFFF70CFF34460C340E480125D2
:1030B00021462A46FEF75AF80D4821462A46FEF7D1
:1030C00055F800F021F8706A0528FAD0FEF726F9C5
:1030D000F9E7C046000400506B0400082C100240C1
:1030E000D8100000D50200089401002000480040DC
:1030F000140200200044004018000020FFFF0000E0
:103100009400002014010020F0B585B0F24D10218C
:10311000012428462246FDF7A8F92021002228464E
:10312000FDF7A3F905200507E60228463146FDF71D
:1031300097F9012809D11E2000F03CF9974800F0CA
:1031400059F9E448418A7831418228463146FDF7F1
:1031500087F9002804952BD11E20914DA84764279C
:10316000904C3846A0473C20A8473846A0475A20F4
:10317000A8473846A0477820A8473846A047962059
:10318000A8473846049FA047D24C608A401D608201
:10319000B420A847864D38463146FDF761F900282E
:1031A00006D1686800F026F9608A401C6082F2E768
:1031B0001021029101247C4EC74D28462246B0477B
:1031C0002027284639462246B047AF20800003908A
:1031D000FDF770F80026284602993246724B984750
:1031E00028463946019422466F4B984702212846CB
:1031F000FDF736F96321C9430291002832D11E2020
:1032000067498847674F029C2046B8473C2064497D
:1032100088472046B8475A20614FB8472046614F3B
:10322000B84778205E4988472046B84796205C4FCB
:10323000B84720465B498847A64FB88A401FB882E6
:10324000B420574988475A4C02212846FDF708F90F
:10325000002807D16068404200F0CCF8B88A401ED0
:10326000B882F1E7102428462146019F3A46FDF72F
:10327000FCF80398FDF71EF8284621463246FDF774
:10328000F4F83F0204983946FDF7EAF800282DD1FA
:103290001E20434DA8476426424C3046A0473C20A0
:1032A000A8473046A0475A20A8473046A047782074
:1032B000A8473046A0479620A8473046A047F24C82
:1032C000A08A401DA082B420A8470026384D04984B
:1032D0003946FDF7C5F8002807D1686800F08AF87C
:1032E000A08A401CA082761CF1E7E84D1024012240
:1032F00028462146FDF7B9F80398FCF7DBFF0022CA
:10330000284621460492FDF7B0F81E20244CA04721
:10331000244D0298A8472820A047244F3846A847A4
:103320003C20A0473846A8475020A0473846A84729
:103330006420A0473846A8477820A0473846A847C9
:103340008C20A0473846A847A020A0473846A84769
:10335000B420A0477408473C154D012C05DB686874
:10336000404200F047F8641EF7E7C74D049FAF8264
:103370006F827D20C000FCF79DFF10210124C34E09
:1033800030462246FDF771F8202130462246FDF7EF
:103390006CF86F6205B0F0BD00040050E02E000034
:1033A000B5330008F53300086B04000818FCFFFF74
:1033B0000000002010B50446B64801680448FCF738
:1033C000CBFE2146FCF7C8FEAF49C86210BDC0461F
:1033D000008793031800002080B5012100280A46C9
:1033E00002D0012805D10022052000070903FDF7BE
:1033F0003CF880BDFEB50446A34D00200290A862B3
:10340000012C02DB0120A86104E0002C02D5029807
:10341000A86164422E4640363046FDF7CDFC286C4C
:10342000029941620520000701900120012C50DB28
:10343000002801D0296C06E03046FDF7BDFC296C60
:103440000020486201204A6AAB6AEF6AD21ABA4287
:1034500036D33046FDF7C2FCA869012813D10127F5
:103460008A4839463A46FDF700F8402101983A4625
:10347000FCF7FBFFE869401CE8618649096888425F
:1034800013D1002011E00121002780483A46FCF7C3
:10349000ECFF402101983A46FCF7E7FFE869002875
:1034A00002D17C480068E861401EE861C10F411804
:1034B00001229143401AFFF78FFF641E296C029886
:1034C000496A754A9142B1D33046FDF787FC002026
:1034D000ACE7FEBD1800002000040050F0B585B038
:1034E000694C0027A762002806D4002904DC0122C9
:1034F000A2614E4205461BE0012805DB012903DBE2
:103500000222A26105460DE00A4602400CD40028C2
:103510003D463E460CD501293D463E4608DB042289
:10352000A26145420E4603E00322A2614E4245429B
:10353000204640300190FDF73FFC206C476201209F
:103540000490000203900520009000070290012DD6
:1035500000DA96E0012E00DA93E037462E4602218B
:103560004A48FCF77DFF1425012804D1605F4849D3
:10357000884200DA83E002980399FCF771FF012882
:1035800004D1605F0399A431884278DC0498002854
:1035900001D0206C07E00198FDF70EFC206C0021A3
:1035A0004162012104913546416AA26AE36A891A9F
:1035B00099423E4658D30198FDF710FCA069401E81
:1035C000032818D878440079400087440116292E32
:1035D00001212E480A46FCF748FF402100270298A7
:1035E0003A46FCF742FF2B480168206A401C88429B
:1035F0002DD007462BE0276A2AE0012723483946C9
:103600003A46FCF732FF402102983A46FCF72DFF7C
:1036100020480068216A4F1C874218D1002716E015
:103620000121002719483A4603E0012700221748E4
:103630003946FCF71AFF402102983A46FCF715FF7D
:10364000206A002802D1134800682062471E2762C2
:10365000F80F381801218843381AFFF7BDFE761E8F
:103660006D1E206C00210491406A0B49884200D2F3
:103670006DE70198FDF7B2FB0020049067E7009822
:10368000606205B0F0BDC046180000200004005084
:1036900052FEFFFF14000020DCFF000005484169D6
:1036A000C907FCD10168C90703D0034981600349F8
:1036B0008160704704200240EFCDAB89050403020E
:1036C00070B516460D460446FFF7E8FF722E09D086
:1036D0006C2E16D1022D0DD0012D12D160BA0A49DF
:1036E00008800EE0022D09D0012D0AD160BA0649EA
:1036F000488006E060BA0449888002E060BA024966
:10370000C880FFF711FC70BD00010808F8B51F461E
:1037100016460C460546FFF7C1FF022F0BD0012FBE
:1037200015D17000290A0B4A815480184570014652
:103730004131403008E070000649401869BA8022E3
:1037400081520146C131C0300C70210A0170FFF76F
:10375000EBFBF8BD0000080802E008C8121F08C112
:10376000002AFAD170477047002001E001C1121F02
:10377000002AFBD170470000000000000000010299
:103780000304060708090000000001020304030403
:1037900006080C1018203000B83700080000002080
:1037A0001800000058370008D03700081800002023
:1037B00080060000683700081400D007640000008D
:1037C000010000000400000000002000F00A0000DA
:04000005080000C12E
:00000001FF
